:020000040000FA
:020000000528D1
:08000800362821006F30990039
:1000100023008C018D01210080308C008D01CF30B8
:100020008E002100023095008801A001A101A201EB
:10003000A3018C0184018501860187018E010130B5
:100040008C008C002030A400A8000A30A9003C30AD
:10005000B0003230B1000230B2006430B300E8309A
:100060008B0027000F3098008801352893210B1949
:100070003A284628FA20E520231B5429A31C0829E6
:10008000A3192829833095000B1109006A21270044
:100090001918542099186C2019197E209919882054
:1000A00027009901880109008801A31C58285F28AE
:1000B00023195C2823150800231119100800231E9A
:1000C0006428C62027000800231969282315270063
:1000D00008002311270008008801A31C7028772836
:1000E00088012311A001A101A20127000800231EFD
:1000F0007C28280886009E20270008008801231EEF
:100100008628A31C862828088600B120270008001E
:100110008801231A93282311A001A101A201A3148D
:1001200023112316080020302806031DE22823127D
:10013000A310A001A101A201270008002030280679
:100140000319A328AA28810A0108643A031D08009C
:1001500081010800810A01083C3A031D0800810161
:100160000800203028060319B628BE28810301089C
:10017000FF3A031D08006330810008008103010875
:10018000FF3A031D08003B3081000800223028069A
:100190000319CC28A80A080000302006031DA31567
:1001A00000302106031DA31500302206031DA315F0
:1001B000A31DDF2822082806031DDF282829203058
:1001C000A8000800A80327000800000889212318B8
:1001D000EA28F2282508A121231A6F218D009921F0
:1001E000231008002608A121231A6F218D009921D0
:1001F000231408008C0D0C1B02292318A40A2408C0
:100200008400080001308C002030A4008400080025
:10021000231D4228A90B42280E2142280A30A9009A
:100220002008633A03191629A00A0800A001210832
:100230003B3A03191D29A10A0800A10122083B3AF3
:1002400003192429A20A0800A001A101A2010800A3
:10025000231DA90B42282D214228231242290A30AE
:10026000A9002008003A03193729A00308006330C9
:10027000A0002108003A03193F29A10308003B30E0
:10028000A100A2032208003A031D2F292108003AE9
:10029000031D2F292008003A031D2F29A31123161F
:1002A0002030A80023170900B30B42286430B300A4
:1002B000B20B542964210230B200B10B542923132C
:1002C0003230B1000E1242280E1E68290E120800AC
:1002D0000E160800231F080023130E124228B40034
:1002E000040828060319762934080800B00B83296E
:1002F0003C30B000A31A7D298029A31234080800DD
:10030000A316FF300800A31E8729FF300800340819
:100310000800A500A6010A30A502031C9129A60A1F
:100320008B29A5070800A31C97298E1608008E129A
:100330000800231C08002408203A031908008D1324
:1003400008000B00C034F934A434B034993492342A
:080350008234F834803490344B
:020000040001F9
:02000E00E43FCD
:00000001FF
